:020000040000FA
:1000000080314328083400347E1480314E01961E1E
:100010000A280B2813288C1E0E280F281328AF310E
:10002000CF2780314128161E162817281F280C1E9E
:100030001A281B281F28AF312527803141280B1F84
:10004000222823284128171C262827282F280D1C62
:100050002A282B282F2898310520803141281A1C66
:10006000322833284128101C362837284128A0314F
:100070007E208031412841284128412841284128BB
:1000800041287E100900803145284201803102203C
:100090008031E900803103208031EA005D30840046
:1000A000AF308500CD308600013087000C30AE3196
:1000B000EF26803150308400003085001030AE31A2
:1000C000E9268031E401E501E601A0308400013039
:1000D00085002D30AE31E926803120308400023099
:1000E00085005030AE31E92680317E1040019B31D1
:1000F000D22BFD304201C007FF30C13D203041010D
:10010000BA003A084001C000420141084001C20063
:10011000420140084001C10042013A08A5311F25B3
:100120008031400141084101B600400140084101D1
:10013000B500992F992F420150084001B3004201A8
:100140004F084001B20042014E084001B100420197
:100150004D084001B000A7317D27803140013008B3
:100160003104031DB428B528292941013908BF3EAF
:10017000BA00FF3003180030BB0000303B021A30D9
:1001800003193A02031CC528C7280130C8280030CB
:10019000BC00BD013C084201A80041013D084201EC
:1001A000A900E92841013908BA00BB013A08400119
:1001B000B00041013B084001B100A031E320803193
:1001C000400131084201A900400130084201A80065
:1001D000E928280829040319EE28EF28FB280F3006
:1001E0004001B000B030B10042015308203EA231BE
:1001F00003228031072917304001B000B030B10030
:1002000042015308203EA231032280310729FD30EC
:100210004201C007FF30C13D20304101BA003A0819
:100220004001C000420141084001C20042014008B3
:100230004001C10042013A08A5311F25803140012B
:1002400041084101B600400140084101B500992F25
:10025000992F3F304201D8008030D7000030D600BF
:100260000030D500D101D20150084001B300420155
:100270004F084001B20042014E084001B100420166
:100280004D084001B0000030B7000030B60000302B
:10029000B5000030B400A431CE24803103185129B8
:1002A00052291C2A8529852941304001BC00203073
:1002B000BB000030BA000030B900420158084001CC
:1002C000C000420157084001BF00420156084001EA
:1002D000BE00420155084001BD008831CC2080316C
:1002E00040013C084201D80040013B084201D700D0
:1002F00040013A084201D600400139084201D500C8
:100300000130D1070030D23D85294201500840011B
:10031000C90042014F084001C80042014E08400197
:10032000C70042014D084001C6004130BC002030EA
:10033000BB000030BA000030B9004201580840014B
:10034000C000420157084001BF0042015608400169
:10035000BE00420155084001BD008831CC208031EB
:1003600040013C08CD003B08CC003A08CB003908DE
:10037000CA009A310B2280310318BF29C0295429A1
:10038000F329F32941304001B3002030B20000309E
:10039000B1000030B000420158084001B7004201EE
:1003A00057084001B600420156084001B50042011D
:1003B00055084001B4009331AF2380314001330828
:1003C0004201D800400132084201D7004001310803
:1003D0004201D600400130084201D500FF30D1076C
:1003E000FF30D23DF329420150084001C9004201CB
:1003F0004F084001C80042014E084001C7004201B9
:100400004D084001C600420158084001CD0042019C
:1004100057084001CC00420156084001CB00420180
:1004200055084001CA009A310B228031031C192A59
:100430001A2AC2291C2A1C2A41013908BA00BB0108
:100440003A084001B60041013B084001B700A23123
:10045000D4228031400136084101BC003C084201F1
:10046000C20042084101BA003A084201BF006730A9
:100470004206031D3C2A3D2A672A400155085604BE
:10048000031D432A442A482A0130D5000030D600F3
:100490005608803A4101BA0080303A02031D532ABF
:1004A0000130400155020318562A572A5D2A0630AA
:1004B0004201BD000030BE007B2A400156084201C7
:1004C000BE00400155084201BD007B2A7B2A400145
:1004D000D61B6B2A6C2A742A56084201BE004001C2
:1004E00055084201BD007B2A06304201BD000030A4
:1004F000BE007B2A7B2A67304206031D802A812AA0
:10050000BA2A5208803A4101BA007F303A02031DEC
:100510008C2AFC3042015102031C8F2A902AB32AF4
:1005200042013D08FF3E4101BA00FF3042013E3D1D
:100530004101BB003B08803ABC0042015208803AAE
:1005400041013C02031DA82A4201510841013A021F
:10055000031CAB2AAC2AB32A66304101BA003A0820
:100560004201BF00BA2A65304101BA003A0842018F
:10057000BF00BA2A3E08B5003D08B4006730420605
:10058000031DC32AC42ACF2A66303F06031DC92A89
:10059000CA2AD42AD21FCD2ACE2AD42ACF2A013061
:1005A000B4070030B53DD42A66303F06031DD92A72
:1005B000DA2AF52AD21FDD2ADE2AE92A3F30D800BE
:1005C0008030D7000030D6000030D500D101D201F4
:1005D000E92A673042060319EE2AEF2AF52A510864
:1005E000B4075208B53DF52AF52ACB01CC015008D5
:1005F000C6004F08C5004E08C4004D08C300580887
:10060000A3005708A2005608A1005508A000E02B3F
:10061000420158084001B300420157084001B200AE
:10062000420156084001B100420155084001B000A6
:10063000420146084001B700420145084001B600AA
:10064000420144084001B500420143084001B400A2
:100650009331AF23803140013308CD003208CC0004
:100660003108CB003008CA009C31C02480314001E1
:100670004D084201CA0040014C084201C900400136
:100680004B084201C80040014A084201C7004A081D
:100690004001B300420149084001B200420148084C
:1006A0004001B100420147084001B0009831DD200F
:1006B0008031400131084201B90040013008420157
:1006C000B8004A084001C000420149084001BF008B
:1006D000420148084001BE00420147084001BD00F8
:1006E000420158084001BC00420157084001BB00CC
:1006F000420156084001BA00420155084001B900C4
:100700008831CC20803140013C08CB003B08CA0036
:100710003A08C9003908C800420146084001CF0024
:10072000420145084001CE00420144084001CD008D
:10073000420143084001CC00A131762180314001C3
:100740004B084201C60040014A084201C500400171
:1007500049084201C400400148084201C300413039
:100760004001B3002030B2000030B1000030B000D2
:10077000420158084001B700420157084001B60045
:10078000420156084001B500420155084001B4003D
:100790009331AF238031400133084201D80040013A
:1007A00032084201D700400131084201D600400121
:1007B00030084201D5000130CB070030CC3DE02BA2
:1007C0004C08803A4101BA0042013508803A4101A3
:1007D0003A02031DEE2B420134084B02031CF12B9D
:1007E000F22B082BF32B40304001BC00A030BB00A3
:1007F0000030BA000030B900420158084001C00082
:10080000420157084001BF00420156084001BE00A6
:10081000420155084001BD008831CC2080314001A3
:100820003C084201CA0040013B084201C9004001A6
:100830003A084201C800400139084201C700460891
:100840004001C900420145084001C8004201440876
:100850004001C700420143084001C60042014A0866
:100860004001CD00420149084001CC004201480846
:100870004001CB00420147084001CA009A310B22D7
:1008800080310318442C452C4F2C00304201CA0003
:100890000030C9000030C8000030C700852C42017C
:1008A00046084001B300420145084001B200420140
:1008B00044084001B100420143084001B000420138
:1008C0004A084001B700420149084001B600420110
:1008D00048084001B500420147084001B400A43176
:1008E000CE248031031C752C762C852C42013818BF
:1008F0007A2C7B2C852C0030CA000030C9000030D7
:10090000C8000030C700852C852C42014A084001F0
:10091000B300420149084001B200420148084001C9
:10092000B100420147084001B000420150084001B7
:10093000B70042014F084001B60042014E08400195
:10094000B50042014D084001B40095318E2580313B
:10095000400133084201C600400132084201C5008F
:10096000400131084201C400400130084201C30087
:100970002308D8002208D7002108D6002008D50077
:1009800065303F060319C52CC62CCB2C5208B70086
:100990005108B600CD2CB601B701B201B301B001C8
:1009A000B101CB01CC01292E420158084001B3000E
:1009B000420157084001B200420156084001B1000F
:1009C000420155084001B000420146084001B7000D
:1009D000420145084001B600420144084001B5000B
:1009E000420143084001B4009331AF2380314001FC
:1009F0003308CD003208CC003108CB003008CA00E3
:100A00009C31C024803140014D084201CA004001A0
:100A10004C084201C90040014B084201C800400196
:100A20004A084201C7004A084001B3004201490890
:100A30004001B200420148084001B10042014708AC
:100A40004001B0009831DD20803140013108420181
:100A5000B900400130084201B8004001571A312D59
:100A6000322D482D420138083904031D382D392D07
:100A7000482D67304206031D3E2D3F2D482DB71FE0
:100A8000422D432D482D0130B0070030B13DA62D39
:100A9000420132083304031D4E2D4F2D882DB71F00
:100AA000522D532D882D2E304101BA00420153089A
:100AB000203E86000230870041013A088100013063
:100AC0004201D3070030D43DFF30C007FF30C13DA5
:100AD0000130B2000030B300882D882D3030410144
:100AE000BA0042015308203E8600023087004101CF
:100AF0003A08810001304201D3070030D43DFF3075
:100B0000C007FF30C13DFF30B007FF30B13D882D39
:100B100030083104031D8D2D8E2D6E2D8F2D38083C
:100B2000303E4101BA0042015308203E86000230A7
:100B3000870041013A08810001304201D3070030AB
:100B4000D43DFF30C007FF30C13DA62D4A0840010B
:100B5000C000420149084001BF004201480840016D
:100B6000BE00420147084001BD0042015808400153
:100B7000BC00420157084001BB0042015608400139
:100B8000BA00420155084001B9008831CC208031BB
:100B900040013C08CB003B08CA003A08C9003908AC
:100BA000C800420146084001CF004201450840010B
:100BB000CE00420144084001CD00420143084001FB
:100BC000CC00A1317621803140014B084201C600A2
:100BD00040014A084201C500400149084201C400E1
:100BE000400148084201C30041304001B3002030B9
:100BF000B2000030B1000030B0004201580840019E
:100C0000B700420157084001B600420156084001B2
:100C1000B500420155084001B4009331AF23803143
:100C2000400133084201D800400132084201D70098
:100C3000400131084201D600400130084201D50090
:100C4000FF30B607FF30B73D0130CB070030CC3D59
:100C5000292E4C08803A4101BA0042013508803AF9
:100C600041013A02031D372E420134084B0203189A
:100C70003A2E3B2E4D2E42015408803A4101BA00D3
:100C800080303A02031D472E4B3042015302031CB1
:100C90004A2E4B2ED42C4D2E4D2E420132083304B9
:100CA000031D532E542E6B2E4001571E582E592EC5
:100CB0006B2E2E304101BA0042015308203E8600BF
:100CC0000230870041013A08810001304201D30718
:100CD0000030D43D6B2E42015308203E8600023086
:100CE0008700810165303F06031D772E782E7D2F0A
:100CF0004F30CB000030CC004B08203E8600023045
:100D000087008101BB01BC01D21F872E882E922E45
:100D10000130BB000030BC00D109D209D10A03194F
:100D2000D20A922E0230BD000030BE00DB2EFF3012
:100D30004201CB07FF30CC3D0A304001B00000300B
:100D4000B100420152084001B30042015108400184
:100D5000B20087319A27803140013008303E41018E
:100D6000BA0042014B08203E860002308700410154
:100D70003A0881000A304001B0000030B100420161
:100D800052084001B300420151084001B200A631AF
:100D900098268031400131084201D20040013008DC
:100DA0004201D100FF30BD07FF30BE3DFF30C0071C
:100DB000FF30C13DDB2E51085204031DE02EE12E11
:100DC000972E3E08803A4101BA0080303A02031D56
:100DD000EC2E013042013D020318EF2EF02E972E2B
:100DE000F12EFF304201CB07FF30CC3D3B083C04E5
:100DF000031DFB2EFC2E012F2B30AA000030AB0070
:100E0000062F2D30AA000030AB00062F2A08410122
:100E1000BA0042014B08203E8600023087004101A3
:100E20003A088100FF304201C007FF30C13DFF306A
:100E3000CB07FF30CC3D41013908BF3EBA00FF303F
:100E400003180030BB0000303B021A3003193A028D
:100E5000031C2B2F2D2F01302E2F0030BC00BD0185
:100E60003C084201AE0041013D084201AF004F2F56
:100E700041013908BA00BB013A084001B000410104
:100E80003B084001B100A031E3208031400131082E
:100E90004201AF00400130084201AE004F2F2E0842
:100EA0002F04031D542F552F5A2F6530AC000030EE
:100EB000AD005F2F4530AC000030AD005F2F2C0837
:100EC0004101BA0042014B08203E860002308700F3
:100ED00041013A088100FF304201C007FF30C13DA7
:100EE0004B08203E4001B0000230B10042015308DF
:100EF000203EA231032280317D2F20304101BA00F3
:100F00003A084001C000420141084001C2004201CC
:100F100040084001C10042013A08A5311F25803137
:100F2000400141084101B600400140084101B500BF
:100F3000992F08004001B601B31F9F2FA02FA82FA3
:100F4000B209B309B20A0319B30AB601B60AA82F47
:100F5000B11FAB2FAC2FB22FB009B109B00A0319E2
:100F6000B10AB22F300831040319B72FB82FE72F79
:100F7000B501B50AC52F0130B035B10D890BBC2FB5
:100F80000130B4003408B507C52FB11FC82FC92FD1
:100F9000BB2FCB2FCB2F31083302031DD12F3008AD
:100FA0003202031CD42FD52FDA2F3008B2023108B9
:100FB000B33BDA2F0130B136B00C890BDB2F013097
:100FC000B502031DE42FE52FCB2FE72FE72F3608BF
:100FD0000319EB2FEC2FF22FB209B309B20A031950
:100FE000B30AF22F3308B1003208B000F72F08001F
:100FF0004F0196019701980199019A019B01080000
:101000004001B7000F303705B4000A30B50035088D
:10101000B0003708B6000430B636890B0C28360805
:101020000F39A031AF20883140013407172808005C
:10103000F800780803191D281E283228F31F2128DC
:10104000222832287009FA007109FB007209FC009D
:101050007309FD00FA0A0319FB0A0319FC0A0319B4
:10106000FD0A3A287308FD007208FC007108FB00B5
:101070007008FA007308720471047004031D41289B
:1010800042284C280030F3000030F2000030F1001C
:101090000030F000CB28CB289630F4007408F9001B
:1010A0005D280130F4007408F9070130FD36FC0CAE
:1010B000FB0CFA0C890B56285D28FE307D05031DBC
:1010C000622863285128782878280130F4007408B1
:1010D000F9070130FA070030FB3D0030FC3D0030DD
:1010E000FD3D0130FD36FC0CFB0CFA0C890B72281F
:1010F000FF307D05031D7D287E2865288A288A28E3
:101100000130F9020130FA35FB0DFC0DFD0D890BA4
:1011100083288A28FC1B8D288E2895280230790286
:1011200003189328942880289528791898289928B6
:10113000A128FF30FA05FF30FB057F30FC05FF30AA
:10114000FD050310F90C7908F400F501F601F7012B
:101150001830F435F50DF60DF70D890BA928740834
:10116000FA047508FB047608FC047708FD04780887
:101170000319BB28BC28C228F31FBF28C028C228D7
:10118000FD17C2287D08F3007C08F2007B08F100FF
:101190007A08F000CB28080040013C088039C100E3
:1011A00041084101A00040013C35C1004108410116
:1011B000A6004001BB1FDD28DE28E12841012614DE
:1011C000E128410126080319E628E728F928260A1C
:1011D000031DEB28EC28F62800304001BC0000304D
:1011E000BB000030BA000030B900F6284001BB1740
:1011F000032900304001BC000030BB000030BA00C1
:101200000030B900032940088039C100410841017C
:10121000A00640014035C10041084101A100400144
:10122000BF1F13291429172941012114172941012E
:10123000210803191C291D292F29210A031D2129F1
:1012400022292C2900304001C0000030BF000030AE
:10125000BE000030BD002C294001BF1739290030E5
:101260004001C0000030BF000030BE000030BD00B3
:1012700039294101210803193E293F29452926081A
:10128000031D432944295029452900304001BC0051
:101290000030BB000030BA000030B900E22BE22B76
:1012A00040013908C1004108B0003F08A23128229E
:1012B0008831400131084101AC0040013008410152
:1012C000AB002B084001C100C201C301C4014408A6
:1012D0004101A500400143084101A400400142082A
:1012E0004101A300400141084101A2002C08400136
:1012F000C100C201C301C40144084101AA00400168
:1013000043084101A900400142084101A8004001F1
:1013100041084101A70040013A08C1004108B0005E
:101320003E08A23128228831400131084101AC0039
:10133000400130084101AB002B084001C100C2014F
:10134000C301C40141084101A20740014208410113
:10135000A33D400143084101A43D4001440841012F
:10136000A53D2C084001C100C201C301C4014108D0
:101370004101A707400142084101A83D400143083F
:101380004101A93D400144084101AA3D40013B08FB
:10139000C1004108B0003D08A23128228831400137
:1013A00031084101AC00400130084101AB002B087D
:1013B0004001C100C201C301C40141084101A207AB
:1013C000400142084101A33D400143084101A43DC1
:1013D000400144084101A53D2C084001C100C20163
:1013E000C301C40141084101A7074001420841016E
:1013F000A83D400143084101A93D40014408410185
:10140000AA3D0830A235A30DA40DA50D890B022A13
:1014100040013A08C1004108B0003D08A23128222D
:101420008831400131084101AC00400130084101E0
:10143000AB002B08A2072C08A33D0030A43DA53D1E
:1014400040013908C1004108B0003E08A2312822FD
:101450008831400131084101AC00400130084101B0
:10146000AB002B08A2072C08A33D0030A43DA53DEE
:101470000830A235A30DA40DA50D890B392A400112
:101480003908C1004108B0003D08A2312822883146
:10149000400131084101AC00400130084101AB007E
:1014A0002B08A2072C08A33D0030A43DA53D400118
:1014B0003A08C1004108B0003F08A2312822883113
:1014C000400131084101AC00400130084101AB004E
:1014D0002B08A7072C08A83D0030A93DAA3D4001D4
:1014E0003B08C1004108B0003E08A23128228831E3
:1014F000400131084101AC00400130084101AB001E
:101500002B08A7072C08A83D0030A93DAA3D4001A3
:101510003B08C1004108B0003F08A23128228831B1
:10152000400131084101AC00400130084101AB00ED
:101530002B084001C10041012C084001C200C30139
:10154000C4010830C135C20DC30DC40D890BA22AD8
:1015500041084101A707400142084101A83D40015F
:1015600043084101A93D400144084101AA3D220828
:101570004001C100410123084001C200410124088B
:101580004001C300410125084001C4001830C436A1
:10159000C30CC20CC10C890BC72A41084101A70723
:1015A000400142084101A83D400143084101A93DD5
:1015B000400144084101AA3D0830A235A30DA40D05
:1015C000A50D890BDD2A260821074001C100C201B3
:1015D000C20D4108823E4101AB00FF304001423D57
:1015E0004101AC000C2B0130A735A80DA90DAA0DA7
:1015F000890BF42AA51FFD2AFE2A002B2714002B95
:101600000130A235A30DA40DA50D890B012BFF30D0
:10161000AB07FF30AC3D0C2BA91F0F2B102BF32A6F
:10162000112BA101A51F152B162B3F2BFF302205D7
:101630004001C100FF30410123054001C200FF30DD
:10164000410124054001C3007F30410125054001CF
:10165000C40044084304420441040319302B312BD5
:10166000352B4101A101A10A3F2B4101271C392B38
:101670003A2B3F2BA101A10A3F2B3F2B3F2B2108E7
:101680000319432B442B7C2B0130A7070030A83DC6
:101690000030A93D0030AA3D2A1C4F2B502B7C2B3B
:1016A00027084001C100410128084001C200410152
:1016B00029084001C30041012A084001C40001304B
:1016C000C500C437C30CC20CC10CC50B612B440848
:1016D0004101AA00400143084101A900400142081C
:1016E0004101A800400141084101A7000130AB07BA
:1016F0000030AC3D7C2B7C2B2C08803A4001C10093
:1017000080304102031D872BFF3041012B02031C57
:101710008A2B8B2B952B7F304101AA008030A900AA
:101720000030A8000030A700CC2B41012C08803AE3
:101730004001C10080304102031DA12B0130410155
:101740002B020318A42BA52BB02B00304101AA00BB
:101750000030A9000030A8000030A700A001CC2B69
:1017600041012B084001C10041084101A600FF30A2
:10177000A705FF30A8057F30A9050030AA05261C63
:10178000C22BC32BC52BA917C52B26364001C10080
:1017900041084101AA00CC2B20084001C1004108AA
:1017A0004101AA042A084001BC0041012908400166
:1017B000BB00410128084001BA004101270840014F
:1017C000B900E22B08004101DA003E0886008701DB
:1017D000403FC000413FC1004008840041088500EF
:1017E0001200253A031DF52BF62BD32F3E08860059
:1017F00087010130810741310318810A4001D3017B
:10180000D401D701D801FF30D500FF30D600410107
:10181000CA01CB01732C4E2C4001571441013E08E4
:10182000860087010130810741310318810A732C3A
:101830004001D71441013E0886008701013081072D
:1018400041310318810A732C4001571541013E08AC
:10185000860087010130810741310318810A732C0A
:101860004001D71541013E088600870101308107FC
:1018700041310318810A732C4001571641013E087B
:10188000860087010130810741310318810A732CDA
:101890000130CA000030CB00732C732C3E08860048
:1018A0008701403FC000413FC1004008840041081B
:1018B00085000008C200C3014308003A0319612CE7
:1018C000482C4208203A0319302C033A03193C2CC7
:1018D000083A0319242C063A03190C2C1D3A031953
:1018E000182C482C732C4A084B040319782C792C9B
:1018F0004E2C4001571C7D2C7E2C832CFD30D705AF
:10190000FF30D805832C41013E0886008701403F07
:10191000C000413FC100400884004108850012001A
:101920002A3A031D942C952CB72C3E08860087017B
:101930000130810741310318810A3F088600870181
:10194000010884000130850002308107003F40011A
:10195000D300013FD400D41FAE2CAF2C212D57143F
:10196000D309D409D30A0319D40A212D212D410109
:101970003E0886008701403F4001B600413FB70066
:101980009A31EB228B3140013708D4003608D3005E
:10199000D32C41013E088600870101308107413187
:1019A0000318810AD32C41013E0886008701403F7D
:1019B000C000413FC1004008840041088500000884
:1019C000D03EC200FF3003180030C3000030430295
:1019D0000A3003194202031CEE2CF02C0130F12CCA
:1019E0000030C400C5014408CC004508CD00192DC5
:1019F0003E0886008701403FC000413FC1004008CB
:101A00008400410885000008C200C301420840016B
:101A1000B000410143084001B100A031C9208B3121
:101A2000400131084101CD00400130084101CC00A6
:101A3000192D4C084D04031D1E2D1F2DC92C212DC1
:101A4000212D41013E0886008701403FC000413FF3
:101A5000C100400884004108850012002E3A031D91
:101A6000322D332DD22D4001D501D60141013E0842
:101A7000860087010130810741310318810A3E0841
:101A800086008701403FC000413FC10040088400FC
:101A90004108850012002A3A031D4F2D502D672D55
:101AA0003E08860087010130810741310318810A11
:101AB0003F0886008701010884000130850002305C
:101AC0008107003F4001D500013FD600D22D4101E2
:101AD0003E0886008701403F4001B600413FB70005
:101AE0009A31EB228B3140013708D6003608D500F9
:101AF000832D41013E088600870101308107413175
:101B00000318810A832D41013E0886008701403F6A
:101B1000C000413FC1004008840041088500000822
:101B2000D03EC200FF3003180030C3000030430233
:101B30000A3003194202031C9E2DA02D0130A12D55
:101B40000030C400C5014408CE004508CF00C92DAF
:101B50003E0886008701403FC000413FC100400869
:101B60008400410885000008C200C301420840010A
:101B7000B000410143084001B100A031C9208B31C0
:101B8000400131084101CF00400130084101CE0041
:101B9000C92D4E084F04031DCE2DCF2D792DD22DEA
:101BA000D22DD22D41013E0886008701403FC00062
:101BB000413FC10040088400410885000008C20080
:101BC000C30142084001B600410143084001B7008B
:101BD000A231D4228B31400136084101C4004408AF
:101BE000D60056080319F52DF62D3F2E3E08860027
:101BF0008701403FC000413FC100013040078400E1
:101C000041080318410A85000008C200C3014208C8
:101C10004001B600410143084001B700A231D4227F
:101C20008B31400136084101C4004408D7005708F1
:101C300003191B2E1C2E3F2E3E0886008701403FB5
:101C4000C000413FC1000230400784004108031832
:101C5000410A85000008C200C30142084001B600E5
:101C6000410143084001B700A231D4228B31400129
:101C700036084101C4004408D8003F2E3F2E3E08DC
:101C800086008701403FC000413FC10040088400FA
:101C9000410885001200643A03194F2E502E622E1F
:101CA0003E0886008701403FC000413FC100400818
:101CB0008400410885001200693A031D602E612EE0
:101CC0009E2E622E3E088600870101308107413139
:101CD0000318810A3F08860087010108840001304B
:101CE000850002308107003FC000013FC10040086D
:101CF000C6004108C700890D893B8909C800C90091
:101D000049084001CC00410148084001CB00410195
:101D100047084001CA00410146084001C90041018D
:101D20005A089031B9208B3140014A084101BF0067
:101D3000400149084101BE00FF2FFF2F66305606C3
:101D4000031DA32EA42EE32E3E0886008701403FEC
:101D5000C000413FC10040088400410885000008E0
:101D6000C2004208D9003E08860087010130810781
:101D700041310318810A3F08860087010108840069
:101D80000130850004308107003FD200013FD300BD
:101D9000023FD400033FD5005508B8005408B700EF
:101DA0005308B6005208B5005908C0004008B900F1
:101DB0005A089D31BE258B3141013608BF003508D8
:101DC000BE00FF2FFF2F1B304001B000B030B1002C
:101DD0000230B2000030B300D630A63130268B314D
:101DE000400130083104031DF62EF72E982F4101D3
:101DF0003E0886008701403FC000413FC1000130DE
:101E00004007840041080318410A85000008C20009
:101E10004208D9003E0886008701403FC000413F8C
:101E2000C10040088400410885000008BF3EC20090
:101E3000FF3003180030C300003043021A3003198A
:101E40004202031C242F262F0130272F0030C4000C
:101E5000C5014408D0004508D1004F2F3E08860038
:101E60008701403FC000413FC10040088400410855
:101E700085000008C200C30142084001B0004101D2
:101E800043084001B100A031E3208B31400131080B
:101E90004101D100400130084101D0004F2F5008CE
:101EA00051040319542F552F672F3F0886008701CF
:101EB000010884000130850004308107003FD20012
:101EC000013FD300023FD400033FD500792F3F08E4
:101ED00086008701010884000130850004308107F5
:101EE000003FD200013FD300023FD400033FD500A2
:101EF000792F3E088600870102308107413103189F
:101F0000810A5508B8005408B7005308B6005208B3
:101F1000B5005908C0004008B9005A089D31BE25D7
:101F20008B3141013608BF003508BE00FF2FFF2F5F
:101F300041013E0886008701403FC000413FC1008B
:101F400040088400410885001200253A031DA92F8E
:101F5000AA2FC72F3E088600870101308107413133
:101F60000318810A25304001B0000030B100410162
:101F70005A08C00040084001B200A531D3258B317A
:101F800001304101BE000030BF00FF2FFF2F3E088F
:101F9000860087010130810741310318810ABE01A3
:101FA000BF01FF2FFF2F3E0886008701403FC00082
:101FB000413FC10040088400410885000008C2007C
:101FC000C30142084001B000410143084001B10093
:101FD00041015A08C40044084001B200A531D3258C
:101FE0008B3141013E088600870101308107413174
:101FF0000318810A0130BE000030BF00FF2F080027
:10200000013041019D00E0309E009F019B019C0139
:102010004E0117140800003040012005A8000030D0
:102020002105A90080302205AA007F302305AB00DE
:102030002B082A0429042804031D1F2820282828E7
:102040000030A3000030A2000030A1000030A0004A
:1020500000302405A80000302505A90080302605A1
:10206000AA007F302705AB002B082A042904280486
:10207000031D3B283C2845280030A7000030A6005F
:102080000030A5000030A4004528A31F4828492897
:1020900071280030A8000030A9000030AA0080306C
:1020A000AB002009AC002109AD002209AE002309D4
:1020B000AF00AC0A0319AD0A0319AE0A0319AF0A3F
:1020C0002C08A8072D08A93D2E08AA3D2F08AB3DD6
:1020D0002B08A3002A08A2002908A1002808A000B4
:1020E0007128A71F742875289D280030A80000308B
:1020F000A9000030AA008030AB002409AC002509FB
:10210000AD002609AE002709AF00AC0A0319AD0ADD
:102110000319AE0A0319AF0A2C08A8072D08A93D18
:102120002E08AA3D2F08AB3D2B08A7002A08A600C1
:102130002908A5002808A4009D288030A306803027
:10214000A70627082302031DAF2826082202031D25
:10215000AF2825082102031DAF28240820020318F8
:10216000B228B328B5280310B8280314B828B82813
:1021700008004101A00040014C084101AC004001B1
:102180004B084101AB0040014A084101AA0040014F
:1021900049084101A900AC1BCE28D0280130D12824
:1021A00000304001CD00CE014D084101A7004001A3
:1021B0004E084101A800270828040319E028E12857
:1021C000EC28A909AA09AB09AC09A90A0319AA0AAA
:1021D0000319AB0A0319AC0A4001D61BF028F128F9
:1021E000F528FD30D705FF30D8055608803ACD00D8
:1021F00080304D02031DFE280130550203180129CD
:102200000229082901304101A3000030A40010294F
:10221000400156084101A400400155084101A300B6
:10222000400154084101A600400153084101A500A6
:1022300027082804031D1D291E2924294001571D94
:102240002229232929292429FF304101A507FF300C
:10225000A63D4F304101AD000030AE002D08203EBC
:102260008600023087008101A129FF304101AD07BE
:10227000FF30AE3D00304001B3000030B20000300E
:10228000B1000A30B00041012C084001B700410103
:102290002B084001B60041012A084001B500410168
:1022A00029084001B400983158209031400131088C
:1022B000BC003008BB00A031FD20903140013B083C
:1022C000303ECD0041012D08203E860002308700BF
:1022D00040014D088100FF304101A307FF30A43DBC
:1022E000FF30A507FF30A63D00304001B3000030AD
:1022F000B2000030B1000A30B00041012C084001AA
:10230000B70041012B084001B60041012A084001F5
:10231000B500410129084001B40099317221903182
:10232000400133084101AC00400132084101AB00DB
:10233000400131084101AA00400130084101A900D3
:10234000A1292E08803A4001CD0080304D02031DA6
:10235000AC29013041012D02031CAF29B029E0292D
:1023600041012C082B042A042904031DB829B9298A
:1023700035292408803A4001CD0080304D02031DEC
:10238000C4290130410123020318C729C82935296E
:1023900041012608803A4001CD0080304D02031DE6
:1023A000D429013041012502031CD729D829E0296D
:1023B0004001D718DC29DD293529E029E029E02969
:1023C000410127082804031DE629E729ED294001DA
:1023D000571DEB29EC290F2AED29FF304101AD07EC
:1023E000FF30AE3D27082804031DF729F829FD29F1
:1023F0002B30A1000030A200022A2D30A1000030B5
:10240000A200022A21084001CD0041012D08203EF2
:1024100086000230870040014D0881000F2A4101EB
:102420002D08203E4001CD004D08C0004101260886
:102430004001C200410125084001C10041012008BE
:10244000A5311F25903140014108CA004008C9004C
:10245000292A08004001C600C7019C2B2F2A4608E4
:10246000A131DE2192318831002092314001C30038
:102470004308C7000130C3004308C7073C30470684
:10248000031D432A442A462AC701462A4708A23187
:10249000A52292314001C3004308C1004608A03183
:1024A00067209231AE2B40014608A131DE219231E6
:1024B0008831002092314001C3004308C700013039
:1024C000C3004308C70708304706031D682A692A66
:1024D0006C2AC701C70A6C2A4708A231A52292318B
:1024E0004001C3004308C1004608A0316720923173
:1024F000AE2B40014608A131DE2192318831002007
:1025000092314001C3004308C7000130C3004308B3
:10251000C70720304706031D8E2A8F2A922AC7013B
:10252000C70A922A4708A231A52292314001C3006E
:102530004308C1004608A03167209231AE2B40010C
:102540004608A131DE2192314001C3004308C70093
:1025500047087F398831002092314001C300430889
:10256000C7000130C3004308C7070D304706031DED
:10257000BA2ABB2ABE2AC701C70ABE2A4708A23107
:10258000A52292314001C3004308C1004608A03192
:1025900067209231AE2B40014608A131DE219231F5
:1025A0008831002092314001C3004308C700013048
:1025B000C3004308C70764304706031DE02AE12A29
:1025C000E32AC701E32A4708A231A522923140013C
:1025D000C3004308C1004608A03167209231AE2BEA
:1025E00040014608A131DE2192314001C300430879
:1025F000C7007B2BFB2A4608A131DE2192318831AE
:10260000002092314001C3004308C7000130C300DD
:102610004308C70718304706031D0F2B102B122B3A
:10262000C701122B4708A231A52292314001C300F5
:102630004308C1004608A03167209231AE2B40010B
:1026400047081F398831002092314001C3004308F8
:10265000C7000130C3004308C7070D304706031DFC
:10266000322B332B362BC701C70A362B4708A23132
:10267000A52292314001C3004308C70047084038F3
:10268000C3004308C7004708C3004308C100460809
:10269000A03167209231AE2B400147081F398831A5
:1026A000002092314001C3004308C7000130C3003D
:1026B0004308C7070D304706031D5F2B602B632BB4
:1026C000C701C70A632B4708A231A52292314001F6
:1026D000C3004308C70047086038C3004308C70069
:1026E0004708C3004308C1004608A0316720923163
:1026F000AE2BAE2BAE2B40014708C3000530C336CE
:10270000890B7F2B43080339C400C5014508003AF3
:1027100003198B2BAE2B4408003A0319FB2A013A0C
:102720000319FB2A033A03191F2B013A03194C2BF7
:10273000AE2BAE2BAE2BAE2B4608C300C401440813
:10274000003A0319A42BAE2B43088400073004027F
:102750000318AE2BA8310435203E8200080040014A
:1027600037088039B8003808C1003735B800380854
:10277000C800B61FBC2BBD2BBF2B4814BF2B48086D
:102780000319C32BC42BD52B480A031DC82BC92BF7
:10279000D22B0030B7000030B6000030B50000305A
:1027A000B400D22BB617B701DE2B0030B7000030D3
:1027B000B6000030B5000030B400DE2B330880399D
:1027C000B8003808C1063335B8003808C900B21F50
:1027D000EA2BEB2BED2B4914ED2B49080319F12BB8
:1027E000F22B032C490A031DF62BF72B002C00308B
:1027F000B3000030B2000030B1000030B000002C57
:10280000B217B3010B2C0030B3000030B20000301F
:10281000B1000030B0003308320431043004031D2D
:10282000122C132C2D2C0030B7000030B6000030D5
:10283000B5000030B4008030B6047F30B7044108E2
:10284000B8003808B7043708B3003608B2003508B6
:10285000B1003408B0008D2D8D2D4808031D312C9A
:10286000322C442C0030B7000030B6000030B500E8
:102870000030B4003708B3003608B2003508B100A4
:102880003408B0008D2D8D2D4908B800B901B80964
:10289000B909B80A0319B90A48083807BA0039084B
:1028A0000318390ABB003A087F3EC20000303B3DA6
:1028B000C3003708C0003608BF003508BE00340822
:1028C000BD000030B7000030B6000030B500003069
:1028D000B4000030C7000030C6000030C500003032
:1028E000C400C901B52C49080319772C782C942C05
:1028F0000130BD35BE0DBF0DC00D890B792C0130E7
:10290000B435B50DB60DB70D890B802CC71F892CBA
:102910008A2C8C2C34148C2C0130C435C50DC60D7A
:10292000C70D890B8D2C942C33084002031DA22C5B
:1029300032083F02031DA22C31083E02031DA22CC7
:1029400030083D02031CA52CA62CB02C47173008DC
:10295000BD023108BE3B3208BF3B3308C03BB02C40
:102960000130B8003808C907B52C1A304902031CD9
:10297000BA2CBB2C732CBC2C40083F043E043D04F5
:102980000319C32CC42CE02C4414E02CE02C01309F
:10299000B435B50DB60DB70D890BC82CC71FD12C9A
:1029A000D22CD42C3414D42C0130C435C50DC60D12
:1029B000C70D890BD52CFF30C207FF30C33DE02C7B
:1029C000B61FE32CE42CC72CE52CC901C71FE92C4A
:1029D000EA2C0A2DFF304405B800FF304505B90048
:1029E000FF304605BA007F304705BB003B083A047C
:1029F000390438040319FD2CFE2C012DC901C90A24
:102A00000A2D341C042D052D0A2DC901C90A0A2DD1
:102A10000A2D0A2D490803190E2D0F2D392D0130CD
:102A2000B4070030B53D0030B63D0030B73D371C2F
:102A30001A2D1B2D392D3408B8003508B900360879
:102A4000BA003708BB000130BC00BB37BA0CB90C68
:102A5000B80CBC0B252D3B08B7003A08B600390866
:102A6000B5003808B4000130C2070030C33D392D2D
:102A7000392D4308803AB80080303802031D422DBA
:102A8000FF304202031C452D462D532DFF304001DF
:102A9000C2000030C3000030B7000030B600003084
:102AA000B5000030B40040014308803AB8008030DF
:102AB0003802031D5D2D013042020318602D612D87
:102AC0006D2D4001C201C3010030B7000030B600D7
:102AD0000030B5000030B400C10140014208B80028
:102AE0003808C800481C752D762D782DB6177C2D1A
:102AF0007F30B8003808B6054836B8003808B70047
:102B00004108B8003808B7043708B3003608B200E7
:102B10003508B1003408B0008D2D0800400133089D
:102B20008039B8003808C4003335B8003808C6000A
:102B3000B21F9B2D9C2D9E2D46149E2D46080319D9
:102B4000A22DA32DB42D460A031DA72DA82DB12D0E
:102B50000030B3000030B2000030B1000030B000EF
:102B6000B12DB217B301BD2D0030B3000030B2005B
:102B70000030B1000030B000BD2D37088039B800FA
:102B80003808C500450844060319C72DC82DCA2DAD
:102B90004417CA2D3735B8003808C500B61FD12DE7
:102BA000D22DD42D4514D42D45080319D82DD92D57
:102BB000EA2D450A031DDD2DDE2DE72D0030B7007F
:102BC0000030B6000030B5000030B400E72DB61775
:102BD000B701F22D0030B7000030B6000030B5006C
:102BE0000030B400460845020318F72DF82D3E2E9C
:102BF000441FFB2DFC2D012E8030B8003808C40680
:102C0000012E4608B8003808C7004508B800380843
:102C1000C6004708B8003808C5003008B8003808B2
:102C2000C7003408B8003808B0004708B8003808B2
:102C3000B4003108B8003808C7003508B8003808B3
:102C4000B1004708B8003808B5003208B8003808A5
:102C5000C7003608B8003808B2004708B80038087E
:102C6000B6003308B8003808C7003708B80038087D
:102C7000B3004708B8003808B7003E2EC701460821
:102C8000B800B901B809B909B80A0319B90A450861
:102C90003807BA0039080318390ABB003B08803AE4
:102CA000BC0080303C02031D572E1A303A02031C30
:102CB0005A2E5B2E972E4001330832043104300423
:102CC000031D632E652E0130662E0030B8003808D3
:102CD000C7000030B3000030B2000030B100003057
:102CE000B0004508B8003808C6009F2E972E471C34
:102CF0007A2E7B2E812E47360138B8003808C7005F
:102D0000842E0310C70C842E301C872E882E8A2E0A
:102D1000C7178A2E0130B800B337B20CB10CB00C13
:102D2000B80B8C2E0130B8003808C607972E40012A
:102D300045084602031C9D2E9E2E772E9F2E441B77
:102D4000A22EA32EDF2E4608031DA72EA82EB22EDC
:102D50000030B3000030B2000030B1000030B000ED
:102D6000FF2FFF2F3408B0073508B13D3608B23DBC
:102D70003708B33D331CBD2EBE2E862F471CC12EF7
:102D8000C22EC82E47360138B8003808C700CB2EEF
:102D90000310C70CCB2E301CCE2ECF2ED12EC71732
:102DA000D12E0130B800B337B20CB10CB00CB80B57
:102DB000D32E0130B8003808C607862F862F330877
:102DC000803AB8003708803A3802031DF12E3608E1
:102DD0003202031DF12E35083102031DF12E340895
:102DE00030020318F42EF52E412FFF30B800FF30CB
:102DF000B900FF30BA00FF30BB003408BC00350812
:102E0000BD003608BE003708BF003009C0003109D8
:102E1000C1003209C2003309C300C00A0319C10A44
:102E20000319C20A0319C30A4008BC074108BD3D83
:102E30004208BE3D4308BF3D3C08B8073D08B93DC8
:102E40003E08BA3D3F08BB3D3B08B3003A08B2001C
:102E50003908B1003808B0008030B8003808C4061E
:102E6000C709C70A4708031D362F372F492F0130DE
:102E7000B0070030B13D0030B23D0030B33D492FC6
:102E8000492F3408B0023508B13B3608B23B370849
:102E9000B33B3308320431043004031D502F512F4B
:102EA000802F4708031D552F562F802F0030B30069
:102EB0000030B2000030B1000030B000FF2FFF2F13
:102EC000802F0130B035B10DB20DB30D890B622FDB
:102ED000C71F6B2F6C2F6D2F3014471C702F712F55
:102EE000742F0314C70D772F0310C70D772F4608D3
:102EF00003197B2F7C2F802F0130C602802F802F5B
:102F0000B21F832F842F612F862F862FC501C71FE5
:102F10008A2F8B2F9D2F47087F390319902F912FD0
:102F2000942FC501C50A9D2F301C972F982F9D2FD8
:102F3000C501C50A9D2F9D2F9D2F45080319A12F5F
:102F4000A22FD12F0130B0070030B13D0030B23D8B
:102F50000030B33D331CAD2FAE2FD12F3008B80059
:102F60003108B9003208BA003308BB000130BC0098
:102F7000BB37BA0CB90CB80CBC0BB82F3B08B3006C
:102F80003A08B2003908B1003808B000460A0319FF
:102F9000CA2FCB2FD12F0130B8003808C607D12F48
:102FA000D12F460A0319D52FD62FDC2F4608031D33
:102FB000DA2FDB2FEC2FDC2F0030B3000030B20013
:102FC0000030B1000030B0004608031DE82FE92FA3
:102FD000EC2FC401EC2FEC2F461CEF2FF02FF22F1B
:102FE000B217F62F7F30B8003808B2054636B80061
:102FF0003808B300C41FFD2FFE2FFF2FB3170800A2
:103000000800080041019D1408003F28AE31F52654
:10301000983171084201E5007008E4000430AF31D6
:10302000692798314001DF01DF0A5328AE31F526C8
:10303000983171084301C8007008C7001730AF31DC
:10304000692798310230F20072084001DF005328EE
:103050005E0803192C282D283728AE31F526983123
:1030600071084001DA007008D900DE01372803300A
:10307000AF31692798314001DF01532853284001BF
:103080005F08F200F3017308003A03194828532837
:103090007208003A03190628013A03191628033A60
:1030A0000319282853284E010D1041019D140800D2
:1030B0004001BA01B71F5D285E286B28B409B50925
:1030C000B609B709B40A0319B50A0319B60A0319F0
:1030D000B70ABA01BA0AB31F6E286F287B28B00955
:1030E000B109B209B309B00A0319B10A0319B20A46
:1030F0000319B30A7B28330832043104300403195E
:1031000082288328C228B901B90A92280130B03533
:10311000B10DB20DB30D890B87280130B800380806
:10312000B9079228B31F95289628862898289828AA
:1031300033083702031DA62832083602031DA628CD
:1031400031083502031DA62830083402031CA928C3
:10315000AA28B3283008B4023108B53B3208B63B80
:103160003308B73BB3280130B336B20CB10CB00C06
:10317000890BB4280130B902031DBF28C028982844
:10318000C228C2283A080319C628C728D328B40978
:10319000B509B609B709B40A0319B50A0319B60A7D
:1031A0000319B70AD3283708B3003608B200350828
:1031B000B1003408B000DC28080040013008B40039
:1031C0003108B5003208B6003308B7000310360DD9
:1031D000370DB8003808BA003A08031DF028F12866
:1031E000FB280030B3000030B2000030B1000030E6
:1031F000B000712971293008B4003108B5003208D7
:10320000B6003308B7001F30B736B60CB50CB40C97
:10321000890B04293408B8003808B900B217FF3008
:10322000B005FF30B105FF30B2050030B305963070
:10323000BA02BA1F1C291D2940293A08803A973E34
:103240000318232924292F290030B3000030B200AD
:103250000030B1000030B000712971292F290130F0
:10326000B336B20CB10CB00C890B30290130B4006C
:103270003408BA07031D3D293E292F2961296129F8
:1032800020303A02031C452946295A290030B30050
:103290000030B2000030B1000030B0007129712957
:1032A0005A290130B035B10DB20DB30D890B522939
:1032B0000130BA023A08031D5E295F2951296129AC
:1032C000612939080319652966297129B009B109ED
:1032D000B209B309B00A0319B10A0319B20A0319F2
:1032E000B30A08004001BA01B31F7729782985295C
:1032F000B009B109B209B309B00A0319B10A031937
:10330000B20A0319B30ABA01BA0AB71F8829892970
:103310009929B409B509B609B709B40A0319B50A58
:103320000319B60A0319B70A0130B8003808BA06FB
:1033300099290030BE000030BD000030BC000030D4
:10334000BB0033083204310430040319A829A92929
:10335000F029B901B90AB8290130B035B10DB20D63
:10336000B30D890BAD290130B8003808B907B82969
:10337000B31FBB29BC29AC29BE29BE290130BB35EE
:10338000BC0DBD0DBE0D890BBF2933083702031DCF
:10339000D32932083602031DD32931083502031D13
:1033A000D32930083402031CD629D729E129300853
:1033B000B4023108B53B3208B63B3308B73B3B1487
:1033C000E1290130B336B20CB10CB00C890BE22903
:1033D0000130B902031DED29EE29BE29F029F0299B
:1033E0003A080319F429F529012ABB09BC09BD09CA
:1033F000BE09BB0A0319BC0A0319BD0A0319BE0A98
:10340000012A3E08B3003D08B2003C08B1003B0869
:10341000B0000A2A08000030400146054101AD0015
:103420000030400147054101AE00803040014805B1
:103430004101AF007F30400149054101B000300833
:103440002F042E042D04031D262A272A302A00309B
:103450004001C9000030C8000030C7000030C6007D
:10346000003040014A054101AD00003040014B05EC
:103470004101AE00803040014C054101AF007F307A
:1034800040014D054101B00030082F042E042D04E9
:10349000031D4B2A4C2A562A00304001CD00003033
:1034A000CC000030CB000030CA00562A4001C91FB2
:1034B0005A2A5B2A932A00304101AD000030AE0049
:1034C0000030AF008030B000400146094101B1003A
:1034D000400147094101B200400148094101B300E0
:1034E000400149094101B400B10A0319B20A0319A4
:1034F000B30A0319B40A3108AD073208AE3D3308E8
:10350000AF3D3408B03D30084001C90041012F08EB
:103510004001C80041012E084001C70041012D08AB
:103520004001C600932ACD1F962A972ACF2A003041
:103530004101AD000030AE000030AF008030B0007F
:1035400040014A094101B10040014B094101B2006B
:1035500040014C094101B30040014D094101B40053
:10356000B10A0319B20A0319B30A0319B40A3108DC
:10357000AD073208AE3D3308AF3D3408B03D3008EA
:103580004001CD0041012F084001CC0041012E082F
:103590004001CB0041012D084001CA00CF2A8030F4
:1035A000C9068030CD064D084902031DE12A4C08AA
:1035B0004802031DE12A4B084702031DE12A4A087D
:1035C00046020318E42AE52AE72A0310EA2A03142C
:1035D000EA2AEA2A08004001C301C401BC01BD0176
:1035E000F62A0130B6070030B73DF62AC201C20AFA
:1035F00036088400370885001200203A0319012B91
:10360000022B182B36088400370885000008F73E87
:10361000B800FF3003180030B9000030390205301F
:1036200003193802031C152B162B182BC201182B5B
:103630004208B800B9013808BE003908BF00342B71
:1036400036088400370885000008B800B90138083A
:10365000B0003908B100A131BA219A3140013108D6
:10366000BF003008BE00342B3E083F04031D392B39
:103670003A2BF12A452B452B0130BC000030BD0010
:103680000130B6070030B73D812B3608840037087B
:1036900085000008B800B9013908003A0319512B18
:1036A000812B38082B3A0319402B063A03193C2B7F
:1036B000812B812B36088400370885000008D03E16
:1036C000B800FF3003180030B900B809B909B80ACA
:1036D0000319B90A4408B1004308B0000A30B20027
:1036E0000030B300A13197219A31400138083007EA
:1036F000C3003908313DC4000130B6070030B73D82
:10370000812B36088400370885000008D03EB800B9
:10371000FF3003180030B900003039020A300319B5
:103720003802031C942B962B0130972B0030BA00E3
:10373000BB013A08C0003B08C100B22B3608840028
:10374000370885000008B800B9013808B00039080A
:10375000B100A031C9209A3140013108C1003008C0
:10376000C000B22B40084104031DB72BB82B5A2BC5
:10377000B92B3C083D04031DBE2BBF2BCB2B4309AB
:10378000B8004409B900B80A0319B90A3808B600E4
:103790003908B700D12B4408B7004308B600D12B35
:1037A000D12B08004501AB01A001A13157219B316C
:1037B0001A304001B0002130B100AF3113279B31E6
:1037C00002304001B0002730B100AF311C279B31DF
:1037D00014304001B0002030B100AF310A279B31D6
:1037E000AE31FC269B314F30AF31EF279B318B1729
:1037F0000B1742016A084001B1004201690840010B
:10380000B000A03196209B310330AF31DF279B31D0
:10381000983102209B314501AC01AD01AE01102C65
:10382000A1309E31C4269B314101EC006C0845015A
:10383000A000AF3192279B31013A031D202C212C8F
:10384000382C45012C08031D262C272C3B2CAC01C1
:10385000AC0A013092312A229B3106304101EC0042
:103860003030890B312CEC0B312C00003B2C3B2CE5
:103870004501AC013B2CAF31A1279B31013A031D1F
:10388000422C432C5A2C45012D08031D482C492C51
:103890005D2CAD01AD0A023092312A229B310630F7
:1038A0004101EC003030890B532CEC0B532C000001
:1038B0005D2C5D2C4501AD015D2CAF31B0279B31F6
:1038C000013A031D642C652C842C45012E08031D30
:1038D0006A2C6B2C872CAE01AE0A2B080319712CB5
:1038E000732C0130742C00304101EC006C08450150
:1038F000AB0006304101EC003030890B7D2CEC0B25
:103900007D2C0000872C872C4501AE01872C4501BA
:1039100028084101EC006C084301D7004501270845
:103920004101EC006C084301D50045012508410127
:10393000EC006C084301D300450124084101EC0070
:103940006C084301D100450122084101EC006C08DC
:103950004301CF00450121084101EC006C084301FF
:10396000CD004201E61CB52CB62C102CA5317925D2
:103970009B314201E610102C102C102C8031432872
:10398000430140084101AF0043013F084101AE003F
:1039900043013E084101AD0043013D084101AC0037
:1039A00040014D084101AF0040014C084101AE000B
:1039B00040014B084101AD0040014A084101AC0003
:1039C0002C08A0002D08A1002E08A2002F08A3009B
:1039D0001730A336A20CA10CA00C890BE92CFF30E8
:1039E0002005A40000302105A5002408813EAA007E
:1039F000FF30253DAB002B08803AA000803020022C
:103A0000031D042D17302A02031C072D082D092D34
:103A1000BD2D4101AB1B0D2D0E2D6C2DFF30A000D7
:103A2000FF30A1007F30A2000030A3002A0A1C2D25
:103A3000A337A20CA10CA00C890B182D2308A900F8
:103A40002208A8002108A7002008A6002C082605A7
:103A5000A0002D082705A1002E082805A2002F0888
:103A60002905A3002308220421042004031D392D65
:103A70003A2D3B2DBD2D2C08A0002D08A1002E08AD
:103A8000A2002F08A3001F30A336A20CA10CA00C8B
:103A9000890B442D23082204210420040319512DED
:103AA000522D5B2D2608AC072708AD3D2808AE3DFA
:103AB0002908AF3D5B2D2609A0002709A100280990
:103AC000A2002909A3002008AC052108AD052208A1
:103AD000AE052308AF05AD2D2C08A0002D08A100D0
:103AE0002E08A2002F08A3001F30A336A20CA10CA1
:103AF000A00C890B752D2308220421042004031D2A
:103B0000822D832D8C2D0030AF000030AE000030B0
:103B1000AD000030AC00AD2D2C08A0002D08A10098
:103B20002E08A2002F08A3000130A035A10DA20D80
:103B3000A30D890B952D23082204210420040319C9
:103B4000A22DA32DAD2DBF30AF008030AE000030D0
:103B5000AD000030AC00AD2DAD2D2F084001CD00E3
:103B600041012E084001CC0041012D084001CB004D
:103B700041012C084001CA00BD2D08004201BA00D5
:103B8000BB01BC01410138084201D00041013708A6
:103B90004201CF00410136084201CE004101350803
:103BA0004201CD0050084001C90042014F084001C8
:103BB000C80042014E084001C70042014D084001C3
:103BC000C6000030CD000030CC000030CB0000300B
:103BD000CA009A310B229D310318EF2DF02D182EBB
:103BE00001304201BB000030BC0050084001B3006E
:103BF00042014F084001B20042014E084001B100AD
:103C000042014D084001B000AF3176279D3140019F
:103C100033084201D000400132084201CF00400188
:103C200031084201CE00400130084201CD00182E7B
:103C30004201D301D401400154084201C1004001B6
:103C400053084201C0003B083C04031D282E292EC6
:103C50002F2E4001571D2D2E2E2E562E2F2E420177
:103C60003B083C04031D352E362E3B2E2B30A40082
:103C70000030A500402E2D30A4000030A500402EBD
:103C800024084101BA0042015308203E8600023058
:103C9000870041013A08810001304201D30700301A
:103CA000D43DFF30C007FF30C13D562E42015008C1
:103CB0004001B30042014F084001B20042014E08EA
:103CC0004001B10042014D084001B000A7317D27FD
:103CD0009D31400130033104031D6F2E712E803160
:103CE0009B2841013908BF3EBA00FF30031800305D
:103CF000BB0000303B021A3003193A02031C812E2C
:103D0000832E0130842E0030BC00BD013C084201EE
:103D1000A60041013D084201A700A52E4101390836
:103D2000BA00BB013A084001B00041013B08400124
:103D3000B100A031E3209D31400131084201A700CC
:103D4000400130084201A600A52E260827040319C9
:103D5000AA2EAB2EB82E0B304001B000B030B1000F
:103D600042015308203EA23103229D31803179283F
:103D700013304001B000B030B10042015308203E82
:103D8000A23103229D31B62E4301E0000230A13161
:103D9000DE219E314101EA006A084301DF005F082D
:103DA0004101EA000530EA36890BD32E6A0803394F
:103DB000EB006B084301DE00F82EDE2E43015F08A6
:103DC000883100209E314101EA006A084301DF008A
:103DD0000F2FEA2E43015F081F39883100209E31E2
:103DE0004101EA006A084301DF000F2F0F2F0F2F58
:103DF0005E084101EA00EB016B08003A0319012F4C
:103E00000F2F6A08003A0319DE2E013A0319DE2E3D
:103E1000033A0319EA2E013A0319EA2E0F2FD9307B
:103E20004201DC000130DD000630DE00B030DF0092
:103E300043015F084101EA00EB016A084201E0002A
:103E400041016B084201E100A3317D239E31430112
:103E500059084101EA0043016008860002308700EA
:103E600041016A0881000130EA006A084301E00765
:103E70005A084101EA0043016008860002308700C9
:103E800041016A0881000130EA006A084301E00745
:103E90003A304101EA0043016008860002308700A1
:103EA00041016A0881000130EA006A084301E00725
:103EB0000130A131DE219E31883100209E31410147
:103EC000EA006A084301DF00D9304201DC0001301A
:103ED000DD000630DE00B030DF0043015F08410145
:103EE000EA00EB016A084201E00041016B0842016F
:103EF000E100A3317D239E31430159084101EA00CD
:103F00004301600886000230870041016A08810091
:103F10000130EA006A084301E0075A084101EA005B
:103F20004301600886000230870041016A08810071
:103F30000130EA006A084301E0073A304101EA0033
:103F40004301600886000230870041016A08810051
:103F50000130EA006A084301E0070030A131DE21A8
:103F60009E31883100209E314101EA006A084301F8
:103F7000DF00D9304201DC000130DD000630DE0018
:103F8000B030DF0043015F084101EA00EB016A083D
:103F90004201E00041016B084201E100A3317D23B1
:103FA0009E31430159084101EA004301600886003F
:103FB0000230870041016A0881000130EA006A0886
:103FC0004301E0075A084101EA0043016008860006
:103FD0000230870041016A0881000130EA006A0866
:103FE0004301E0076008860002308700810101304C
:103FF0004101EA006A084301E0075E08FF2F08005C
:10400000A431402CA431442CA431482CA4314C2C94
:10401000A431502CA431542CA431582CA4315C2C44
:10402000A431602CA431642C4201E6140800440140
:104030000E1D1B281C2823280E1071088D007008E7
:104040008C000E14282871088D0070088C00282818
:1040500008002B282B2843010F0C890C0139400143
:10406000B000430111081F3940013004031D3928F5
:104070003A282B283B28080050304B019F00F9308C
:104080009D009C014E018C129616DC304001B00060
:104090002E30B100AF311327A0318F304B019E007D
:1040A00008007108F3007008F200F336F20CF336E2
:1040B000F20C72084601950070080339F2000530D1
:1040C000F235FF3E031D6028723594000800400160
:1040D000C200AF314527A031D030A3310923A03130
:1040E00040014208A3310923A03140014108A33116
:1040F0000923A031AF315127A03108004E01101023
:1041000042016808F1006708F000A0311720A031D3
:1041100043016308640403198E288F2895286408D6
:104120008A0063080A00A031952808004001310880
:10413000B3003008B200B336B20CB336B20C32085A
:1041400046019500400130080339B2000530B23510
:10415000FF3E031DA72832354601940008004001A8
:10416000B300B201B328331CB628B728BC283008E6
:10417000B1003108B207BC280310B00D0310B30C16
:104180003308031DC428C528B328C6283208C82808
:10419000080040013008D03EB200FF30313DB3008E
:1041A000003033020A3003193202031CD828DA28FF
:1041B0000130DB280030B400B5013408B000350808
:1041C000B100E228080040013008BF3EB200FF30D5
:1041D000313DB300003033021A3003193202031CA0
:1041E000F228F4280130F5280030B400B501340875
:1041F000B0003508B100FC28080040013C08803AB6
:10420000BD0080303D02031D072901303B02031829
:104210000A290B29182940013B09BD003C09BE00B1
:10422000BD0A0319BE0A3D08BB003E08BC0019299F
:104230001929080040015D08A331BB23A1314001C9
:104240005D08CD3E8600013087000108A4313E2480
:10425000A1310B3040015D02031C2F293029322986
:10426000DD0137290130F3007308DD073729080025
:1042700044018F01900101309100F0308D006030D9
:104280008C000D084201E80044010C084201E700DF
:104290004E0110101A1400304001B0001830B10067
:1042A000AF311C27A131013044018E000800873155
:1042B000F827A131A331FB23A131AF312F27A13141
:1042C000AE31E326A13190310020A131AF31032777
:1042D000A131AE31DD26A131AF318427A131A13129
:1042E0003821A131A0313C20A131080080304001AB
:1042F000CB064F08B3004E08B2004D08B1004C0881
:10430000B0004B08B7004A08B6004908B500480895
:10431000B40095318E25A13140013308CB0032081D
:10432000CA003108C9003008C800962908004001B9
:10433000B401B5019B29301C9E299F29A32932086D
:10434000B4073308B53D0130B235B30D890BA4294C
:104350000130B136B00C890BA92930083104031D96
:10436000B229B3299B29B4293508B1003408B0001B
:10437000B92908004001B401B40A203030063104E4
:104380000319C329C429D5293008F73EB200FF30EC
:10439000313DB30000303302053003193202031CF3
:1043A000D229D329D529B401D5293408B200B301C3
:1043B0003208B0003308B100DD2908004001B50023
:1043C000B601AF314527A131D030A3310923A13146
:1043D00040013508A3310923A131AF313927A1317B
:1043E000D130A3310923A1310030A4318224A1317D
:1043F0004001B4003408B600AF315127A13140016B
:104400003608022A08004001B7003108B50030081C
:10441000B4003708B2003208B6000F2A0F2A360857
:10442000860002308700B60A3508B3003408B200AF
:10443000B40A0319B50A320884003308850000085D
:10444000C03F8908031D252A262A0F2A272A08008B
:104450004001B800B401B5013008B200B301320820
:10446000B6003308B700342A381C372A382A3C2AC9
:104470003608B4073708B53D0130B635B70D890B9E
:104480003D2A0310B80C3808031D472A482A342A4D
:10449000492A3508B1003408B0004E2A080040010E
:1044A000BF00BD01BE01682A3C08B900BA01390845
:1044B000B0003A08B1003808BB003B08B200A53193
:1044C000D325A23101304001BD070030BE3D682A2E
:1044D0003D083F07B900390886000230870001080F
:1044E000BA003A08BC003C08031D772A782A542AEF
:1044F000792A08004001B7003708B2003208B60038
:10450000862A0130B2003208B707862A37088600AB
:10451000023087000108031D8E2A8F2A812A902AE3
:104520003608B2000230B300B209B309B20A031967
:10453000B30A3708B4000230B50032083407B000BF
:104540003308353DB100A42A08004001C0000A30FC
:10455000B0000030B1004008B900BA013908B2001B
:104560003A08B30087319A27A23140013008BB00D6
:104570003108BC000A30B0000030B1004008BD0076
:10458000BE013D08B2003E08B300A6319826A23114
:1045900040013008BF000330BF35FF3E031DCC2A69
:1045A0003F353B04D32A080040013608BF3EB8001F
:1045B000FF30373DB900003039021A300319380294
:1045C000031CE32AE52A0130E62A0030BA00BB01C9
:1045D0003A08BC003B08BD00FA2A3708B10036088B
:1045E000B000A031E320A23140013108BD00300805
:1045F000BC00FA2A3C083D040319FF2A002B082BB3
:1046000020303604B60000303704B700082B082BE2
:1046100008004001B200A0312920A3314001320836
:1046200043018C00901F152B162B192B412B412B6E
:10463000412B0F3010054001B1000830310603193D
:10464000222B232B302B0F30430110054001B100EA
:104650000B303106031D2D2B2E2B412B302B302BF5
:1046600043010F18342B352B302B362BA03129204A
:10467000A33143011108412B412B412B412B412BED
:10468000412B08004101DD0042015A084101DF00D1
:10469000420159084101DE004301C501C601682BF2
:1046A000DE304101DB005B08BE0042015B084101D6
:1046B000DC005C08BF005D088B31E323A3314101BE
:1046C0003E084301C50741013F084301C63D682B31
:1046D00041015E0884005F0885001200031D712BF4
:1046E000722B502B732B430146084201DA00430121
:1046F00045084201D9007C2B080060304101E000F0
:104700006008E30042015D084101E50042015C08E8
:104710004101E400E601E701E801E90142015F0827
:10472000DA005E08D900E3304101E0006008420190
:10473000DB00E430A3314223A33142015A08410196
:10474000E200420159084101E1000230E43E8600E6
:104750008701403F42015C078400413F5D3D850089
:104760008001410162084201DD004101610842010E
:10477000DC00BA2B0800F200DE2B400198131A1659
:10478000FA2B40011A129A15FA2B40019A119A1429
:10479000FA2B40019A101A14FA2B40011A1018171C
:1047A000FA2B400118139817FA2B40011A129A118C
:1047B0009A101A1018139813FA2BFA2B7208F0009B
:1047C000F1017108003A0319E62BD52B7008003A65
:1047D0000319BD2B023A0319C12B063A0319C52B45
:1047E000023A0319C92B0E3A0319CD2B023A0319C9
:1047F000D12BD52B08004001980199019A0118305E
:1048000092009301E03094007E01CE01C301183084
:10481000B800E501C401B9016030CF00BA01C5019B
:10482000D001FF30BB00FF30C600FF30D100FF30A9
:10483000BC00FF30C700FF30D2000830E800D513BD
:10484000D417D313DB304001B0002E30B100AF31AC
:104850000A27A3314E01161615307D01C5000B3015
:104860007E01A2000E3091001530A5001630A60082
:104870000D30900016307D01C6000800F2006C2C4F
:104880007D3040019900812C113040019900812C2C
:10489000DC3040019900812CD53040019900812CF9
:1048A000B13040019900812CE53040019900812C04
:1048B000ED3040019900812C513040019900812C4C
:1048C000FD3040019900812CF53040019900812C88
:1048D00040019901812C812C7208F000F1017108CE
:1048E000003A0319742C682C7008D03E031C682C05
:1048F00084000A3004020318682CA0310435003EFD
:10490000820008004001B200B301A0312920A43187
:104910000F30430110054001B10008303106031982
:10492000922C932C9E2C0F30430110054001B100B6
:104930000B303106031D9D2C9E2CA22C430191159A
:10494000A22CA22C43010F1CA62CA72CA22CA82C15
:104950000C084001B1003108B300A0312920A43176
:1049600040013203031DB52CB62CC02C430191121B
:104970001116BA2C111ABD2CBE2CBA2CCA2CCA2C5A
:10498000430191161116C42C111AC72CC82CC42C23
:10499000CA2CCA2C40013308CD2C0800003040013D
:1049A0003005B80000303105B90080303205BA005A
:1049B0007F303305BB003B083A0439043804031D3B
:1049C000E22CE32CEB2C0030B3000030B2000030BE
:1049D000B1000030B00000303405B80000303505BB
:1049E000B90080303605BA007F303705BB003B0880
:1049F0003A0439043804031DFE2CFF2C072D003027
:104A0000B7000030B6000030B5000030B400370801
:104A10003306031D152D36083206031D152D3508E6
:104A20003106031D152D340830060319182D192DD4
:104A30001B2D03101E2D03141E2D1E2D08004001DA
:104A4000C800571C242D252D2E2D4808C3004308CF
:104A5000B8004008A2314F22A5312E2D4001C21BC3
:104A6000322D332D382D4208C7004108C6003A2D9B
:104A7000C601C701C401C5014F2D20304001B0005F
:104A80000030B1004808C3004308B200A531D32567
:104A9000A53101304001C4070030C53D4F2D450808
:104AA000803AC3004708803A4302031D592D460847
:104AB0004402031C5C2D5D2D3D2D40015718612DD6
:104AC000622D6B2D4808C3004308B8004008A2318E
:104AD0004F22A5316B2D40014008A2317A22A53129
:104AE000400146083007C0004708313DC100782D1D
:104AF00008007E01CE174001DE01DE0A802D802DE8
:104B00005E08031D842D852D802D862D00305A02D0
:104B1000F5300319590203188E2D8F2DD02D00303A
:104B20005A02103003195902031C972D982DA42DF9
:104B300000305A022730031959020318A02DA12D65
:104B4000A42DD001D00AD02D00305A0228300319EC
:104B50005902031CAC2DAD2DB92D00305A023F3047
:104B6000031959020318B52DB62DB92DD101D10A5B
:104B7000D02D00305A02403003195902031CC12DB8
:104B8000C22DD02D00305A02573003195902031894
:104B9000CA2DCB2DD02DD201D20AD02DD02DD02D83
:104BA0007E01CE130800400132080319D82DD92DFB
:104BB000DF2D3208031DDD2DDE2DE42DDF2D300825
:104BC00098310120A5312F2E40013208043E860085
:104BD0008701160001040319EE2DEF2D0E2E320869
:104BE000043E86008701403FB300413FB4003208D5
:104BF000023E86008701403FB500413FB6003608BF
:104C0000803AB7003408803A3702031D092E330872
:104C1000350203180C2E0D2E2F2E0E2E40013208B9
:104C2000023E86008701320884008501403F00076C
:104C3000B3000131413F003DB40033088600340821
:104C40008700300881003208023E8600870101306B
:104C5000810741310318810A2F2E2F2E2F2E080095
:104C60004001B6003608B4003408B9003108B80075
:104C70003008B7000130B2020030B33B320A031DE6
:104C8000452E330A031D452E462E582EB001B10184
:104C9000972E972E582E0130B4003408B9070130F2
:104CA000B7070030B83D0130B2020030B33B582E98
:104CB000390886008701010803195F2E602E802EB7
:104CC000370884003808850012000319682E692E01
:104CD000802E3208330403196E2E6F2E802E370873
:104CE0008400380885000008B40039088600870170
:104CF0000108340603197D2E7E2E4B2E802E802E29
:104D000037088400380885000008B400B501B409EC
:104D1000B509B40A0319B50A3908860087010108E4
:104D20003407B00035080318350AB100972E080083
:104D30004001B601B11F9D2E9E2EA62EB009B109CD
:104D4000B00A0319B10AB601B60AA62EB31FA92EDE
:104D5000AA2EB42EB209B309B20A0319B30A01305C
:104D6000B4003408B606B42EB701B80130083104D7
:104D70000319BB2EBC2EF12EB501B50AC92E013088
:104D8000B035B10D890BC02E0130B4003408B50721
:104D9000C92EB11FCC2ECD2EBF2ECF2ECF2E01303F
:104DA000B735B80D890BD02E31083302031DDA2E2A
:104DB00030083202031CDD2EDE2EE42E3008B20253
:104DC0003108B33B3714E42E0130B136B00C890BF7
:104DD000E52E0130B502031DEE2EEF2ECF2EF12E63
:104DE000F12E36080319F52EF62EFC2EB709B80958
:104DF000B70A0319B80AFC2E3808B1003708B0000A
:104E0000012F0800420165084001DC0042016408EE
:104E10004001DB005B08F0005C08F100F201F301E7
:104E2000003088311820A73173084001A3007208B0
:104E3000A2007108A1007008A0004430A700503003
:104E4000A600E830A500A330A40090310B20A731C4
:104E500003182B2F2C2F422F003042016A02C8303A
:104E6000031969020318352F362F422F0130E90745
:104E70000030EA3D6A08F1006908F000A0315120D5
:104E8000A7317C2F44304001A3005030A200E8300D
:104E9000A100A330A0005B08F0005C08F100F20163
:104EA000F301003088311820A73173084001A700B2
:104EB0007208A6007108A5007008A40090310B20AC
:104EC000A7310318642F652F7C2F003042016A023E
:104ED000023003196902031C6E2F6F2F7C2F0130E3
:104EE000E9020030EA3B6A08F1006908F000A031ED
:104EF0005120A7317C2F7C2F08004301440840013A
:104F0000BF00430143084001BE0043014208400185
:104F1000BD00430141084001BC003308BF00320816
:104F2000BE003108BD003008BC003C08B4003D089C
:104F3000B5003E08B6003F08B7001730B736B60CCC
:104F4000B50CB40C890B9E2FFF303405BA0000302D
:104F50003505BB003A083B04031DAF2FB02FD32FFC
:104F60003C08B4003D08B5003E08B6003F08B70055
:104F70000130B435B50DB60DB70D890BB92F370813
:104F8000360435043404031DC62FC72FCC2F02303E
:104F9000B0000030B100FF2F0330B0000030B1008E
:104FA000FF2FFF2FFF2F3A0A3B04031DD82FD92FC5
:104FB000FA2F3C08B4003D08B5003E08B6003F0893
:104FC000B7000930B435B50DB60DB70D890BE22F1A
:104FD00037083604350434040319EF2FF12F01305C
:104FE000F22F0030B800B9013808B0003908B1001C
:104FF000FF2FFF2F0430B0000030B100FF2F08005A
:105000000034003400340034003400340034003400
:1050100000340034003400340034003400340034F0
:1050200000340034003400340034003400340034E0
:1050300000340034003400340034003400340034D0
:1050400092312F2A92312F2A9231F02A9231532A0B
:0C5050009231792A92319F2A9231CB2AAA
:105DB60008000800803046019E009D019C010800F5
:105DC600803047018E008D018C010800640080013F
:105DD6000131890BEA2E0034FE0012001E00FE0B74
:105DE600F02E003441011C08F1001B08F000FB2EC8
:105DF6000800DF304001B00030084301900508007C
:105E06008030460196009501C0309400080040019C
:105E160031084301E600400130084301E50008006F
:105E2600400131084301E200400130084301E1002E
:105E36000800400131084301E400400130084301F5
:105E4600E30008007E01D51F292F2A2F2E2FAF3100
:105E5600BF27AF312E2F0800603051018D008F0112
:105E6600910105309300900192010800A03129208C
:105E7600AF31430191143F2F9118422F432F3F2FEB
:105E8600442F0800A0312920AF31430111144B2FB4
:105E960011184E2F4F2F4B2F502F0800A0312920BD
:105EA600AF3143011115572F11195A2F5B2F572F59
:105EB6005C2F0800303430343034303430343034F1
:105EC600303430343034303430340034F10071083A
:105ED600F000F00DF00D41011D0870060339700643
:105EE6009D001D14080040013308320431043004BB
:105EF60003197E2F7F2F822F8030B306822F832FA8
:105F060008000130450190008F01910163308D003A
:105F16008C014E019010803045018E000800400132
:105F26005008B0003008B1003103031D9B2F9C2F91
:105F36009E2FD0019E2F3108A02F08004001510846
:105F4600B0003008B1003103031DAA2FAB2FAD2FCF
:105F5600D101AD2F3108AF2F080040015208B00023
:105F66003008B1003103031DB92FBA2FBC2FD2015F
:105F7600BC2F3108BE2F08004301650866040319CB
:105F8600C52FC62FCC2F66088A0065080A00AF31D8
:105F9600CC2F7E01D51308004E018C1243016108F7
:105FA60062040319D72FD82FDE2F62088A006108F2
:105FB6000A00AF31DE2F08004001B1003108B00001
:105FC600B00DB00D41011D08400130060339300601
:105FD60041019D001D1408004001B1003F30B00092
:105FE600300843018F059001910190158F17901687
:105FF6004001310843018D000800253433342E3426
:106006003234663400342534303432346434003467
:1060160049344E34463400344E3441344E34003420
:1060260069346E34663400346E3461346E34003450
:066036006C3466340034F6
:020000040001F9
:0A000E00EC3F3D3F9F3FFF1FFF3F07
:00000001FF
